:020000020000FC
:1000000058C661C01895189509945DC03AC01895F6
:1000100042C018951895E5C018951895189518952B
:10002000189572C01895697A40744042405B0290FE
:10003000FFFF7F0000B99FB68A9409F4E5E29FBEF6
:1000400018959FB68A949FBE189520FD939A21FD1E
:10005000949A22FD959AE1E3832C24BC1895A895E7
:1000600018958F12EECFA89511FDEFCFE0916500A6
:10007000852C20FD939821FD949822FD959844BCF1
:1000800018959FB640916300415008F40E7F40934D
:1000900063009FBE18959FB64091640043954093BE
:1000A00064004F7019F4BB2019F0BA949FBE1895E4
:1000B00040916600439540936600409167004395E8
:1000C00040936700F3CF46B557B59EB496FE0DC07A
:1000D0009FB65A5659BD48BD41E84EBD48E048BF9D
:1000E0009FBE18959FB604600BC098B693FCFACFDC
:1000F0009FB63A0148B559B55659641A750A106148
:1001000041EC4EBD9FBE18959FB641B1403669F196
:100110004038B1F1403A69F1483A41F0483B79F052
:10012000483F11F04F1321C045ED20C067FC0DC0C2
:10013000F3B94AEF10FD4FEF4093830016C067FC00
:1001400007C04091830043B9F6CF42E94093850050
:100150005E2FE09185004191E093850043B9EA3933
:10016000E52F09F002C045E801C045EC46BF9FBE3F
:100170001895409184004F131461F0938400F5CFDB
:1001800040918400439540938400413019F473B04A
:100190006F2EEBCF423011F463B0E7CF433021F440
:1001A00043B1423001F7E1CF4A3061F05E2FEFE812
:1001B000E40F43B14083E52F50919900540F5093C1
:1001C0009900D3CF43B15091930056FD006157FD84
:1001D0000062451B50E9450F5093930040939900EE
:1001E000C4CF9FB64CB1453F59F006FF0DC030F467
:1001F000509186005A9531F4742E18610F7B04C01B
:10020000006451E0509386009FBE189590E578EC0D
:10021000A39AC298939A1ED0E1F7A398089594E602
:1002200074EBA29AC198949A15D0E1F7A298089518
:1002300098E770EA9298959A0DD0E1F708959CE8B6
:100240007CE8A39AA29AC198939A04D0E1F7A29865
:10025000A3980895F2BF82B78032E8F3929AC29AC7
:10026000C19A62B3677C62BB60E1F2BFA89582B7B6
:100270008717E8F36A95C9F79A95089500D000D0DA
:1002800000D09FE060E1F2BF81E088BFA89588B709
:1002900080FFFDCF6A95B9F79A95A1F708958091EF
:1002A0008A0090918B0089569A4739F0CAE8D0E0CD
:1002B000E6E285918993CA39E1F70895F894EF93BE
:1002C000F5DFEF91789408958091600081BF0F7DF4
:1002D000CAE8D0E080E890E0A895E199FDCF67B743
:1002E00060FDFACFCA3981F09FBB8EBB0196E09AC0
:1002F0006DB317F06993F0CF79917DBBF894E29AD2
:100300006713E19A7894E8CFBCDF8FEF81BF08953F
:10031000000C111CAA1C8A95D9F70895869FA12C60
:10032000969FA00CC11DDF1F879FA00CC11DDF1F62
:10033000979FC00DD11D0895E894A1E070E03AD0D8
:10034000A2E071E037D0A4E0C8E8D3E12197879913
:10035000E9F742D0A5E0C8E8D3E121978699E9F70B
:100360003BD056F38E9A969A8CDFA6E070E040D090
:10037000EC01939A3DD093982BD083DFA7E071E0F6
:1003800037D0EC01949A34D0949822D0969879DFA3
:10039000A9E070E02DD0EC0192982AD0929A14D066
:1003A000AAE071E025D0EC01C29822D0C29A0CD00C
:1003B0008E980895C8E8D3E11BD08F56904018F06E
:1003C0002197D1F70AC00895C817D90730F40895C6
:1003D0008C179D0710F4089551F4CA2FA39A4FDF8C
:1003E000A3984CDFCA95D1F749DF48DF6894089598
:1003F000F0BF706477B987EC86B9A8953699FECFBF
:1004000084B195B1F6B9089513FDADC012FD9DC03C
:100410001F7EC3019053660B602763FDB5C007FDC7
:1004200051C0CCE8D0E001C029DF3FD0BC01A89585
:10043000FF9FAA24CC3831F49FE1603C87E678071F
:1004400098F440C080918C00681780918D007807E7
:1004500060F792E2CE3841F080918E00681780916B
:100460008F00780710F390E2892EA89514FFFDCF36
:100470001F7E1BD0080E191EAF1E861B970B8056C1
:100480009F4F8154914080F68A9479F783E040DF52
:100490001992A992CDDECE38D9F2F3DEC9DEC03989
:1004A000B9F2EFDEC5DE10DF71C0C30103FF0895AE
:1004B000A3E0880F991FAA95E1F7089513FD53C093
:1004C00012FD43C01F76C3019033A8F003FD1AC08C
:1004D000C0917F00D09180008C1B9D0BA8F4106808
:1004E000909581959F4F60917D0070917E0010C026
:1004F000CC27DD271DC0963028F0803C62E19607AE
:1005000003FD30F30460089560917B0070917C00DE
:10051000C0918100D09182008C1B9D0B4AF3C9E1F0
:10052000D0E0FCDEC83383E0D80710F0C8E3D3E0A6
:10053000C0937900D0937A0001FF03C082E0B82E07
:10054000D8C08CE0B816BF1E0895E3011F7E8091CD
:10055000980080FB17F9CC0FC295209649F3CE0185
:100560006DE373E0DCCFD72D1F76C0E0D03001F310
:10057000CE0160E074E0D3CFC3E0769567959695A1
:100580008795CA95D1F7089588E008278091900053
:100590009091910060918C0070918D0003FDECDFD3
:1005A00080937F0090938000681B790B1ED080930E
:1005B0007B0090937C0060919000709191008091FD
:1005C0008E0090918F0003FDD7DF681B790B0DD053
:1005D00080937D0090937E0080E590E003FDCCDF6A
:1005E000809381009093820008956055704085E566
:1005F00095E00196A8959F3F890721F0C0EEDCEFBA
:100600008DDEB9F70895F8948CB59DB560916400BE
:1006100078B77894903872FD6F1FC0916900D091BF
:100620006A00A0906B008093690090936A006093C9
:100630006B0000906C0010906D0070916E00C09384
:100640006C00D0936D00A0926E0080199109670B29
:1006500094306F0728F480E094E060E0D694C7946B
:1006600090386F07A8E3B3E0F0F0A1E0B1E27D01BC
:10067000A0E0BCE9FF9F771B0AC0771F001C111C7C
:1006800078170906160618F0781B090A160AAA1F19
:10069000BB1FEE1CFA9489F7A095B095AE3CBF073E
:1006A00010F4AEECB0E07D0180936F009093700089
:1006B00060937100669597958795C0916900D09178
:1006C0006A00A0906B0070E43CD0C0937200D0939D
:1006D0007300A092740090316F0718F02F7B54D0F4
:1006E00002C020648CD014FDE9CEC0917900D09175
:1006F0007A00CE15DF0508F0E701CC15DD0508F01E
:10070000E60188E393E08C1B9D0BB1F02096B1F0DD
:100710001D7F116016FF04C0880F991FCC0FDD1FCD
:1007200075E29F137BE1C09580951E01F8942C0122
:1007300070936500789408951360F2CF1C7F71E385
:10074000F2CF879FC10DDF1FAF1E979FC00DD11D38
:10075000AF1E679FD00DA11C089580916F009091EE
:10076000700060917100C0917200D0917300A090F0
:1007700074000895F2DFC80FD91FA61EC80FD91F35
:10078000A61E02C0EADFDDDF79B7072E7B7E79BFC8
:1007900070E1F894DBBDCABD78BF8CB59DB5789487
:1007A00001606091640078B7903872FD6F1FC81BBC
:1007B000D90BA60AA09263000AF40E7F09BE089521
:1007C00026FFD8CF80916F0090917000C091720089
:1007D000D0917300C80FD91FC80FD91F10C026FFB2
:1007E000D1CF80916F0090917000C0917200D09134
:1007F0007300879FC10DDF1F979FC00DD11D70E152
:10080000F894DBBDCABD78BF8CB59DB50160F0938F
:1008100063007894C81BD90B0AF40E7F08952796BD
:1008200070E1F8948CB59DB5C80FD91FDBBDCABD6A
:1008300078BFA092630001607894089514FD3EDEB5
:1008400000FDFCCF0895F5BD80E488BFEFE2929AE9
:10085000C29AC19A82B3877C82BB0895B09BF09301
:1008600066008091660085FF0895E0E0F894FCE161
:1008700085919491F0E0789401960297A8F3F8940A
:10088000F7BBF4BBF1BB88E181BDF1BD8091600095
:1008900081BFB6C982E582B985EC86BF0895002480
:1008A0000FBEEFE5F4E0FEBFEDBF0292E036F005CB
:1008B00009F4EEE1E015F005C1F781B7809360001F
:1008C000A4B6F4BF86E088BB86E087BB80E385BB27
:1008D000F4BB86E082BB8EE381BB82E083BF81EC08
:1008E0008EBDF5BD88E181BD88E081BDCADCECDC50
:1008F000D6DCD0DF789420DDA0FAAF1226F486DCB7
:100900008EDC96DC1EC0A2FE04C092DC7FDC006898
:1009100018C0A1FE02C093DC14C0F894A3FE05C069
:1009200075DC74DC85DC84DCFBCFA8DC4A2D58E068
:1009300040FF75DC40FD83DCA2DC46955A95C1F78B
:10094000F4CFA298A3980D7F21DE84E588BF89BFEC
:10095000F0BD89E189B9549A86E880BD8CB15F9A6F
:10096000579A98DF81EC8EBD89B7806289BFBB241E
:10097000137EF0936600F0936700A89514FD0AC0FB
:100980006DDF809167008837C1F78CE38093670043
:100990004FDCF3CF39DDC0917900D0917A002096F9
:1009A00031F78AE0B81648F312FFF6BF13FF5498E8
:1009B000812F8C7019F089B78F7D89BF40DC3FDCB7
:1009C0003EDC0B7F40DF0D7FA29AA398F093660078
:1009D000F0936700A89514FD0CC0BB20D9F73EDF4B
:1009E000809167008E31B1F72EDF4BDC21DC17DC04
:1009F000A8CF04FD63DC05FD67DC60DDBB2051F39F
:100A0000209609F4E3CF1FDF80B7886080BFA398EA
:100A1000A298C9E8D0E06E010260DDD0F0937500C5
:100A2000F0937600F093770082E0B82E86E0809312
:100A300062008CE08093610081E085BD17FD39C0C4
:100A4000CED081E087B93798C29A10FD9298C5D070
:100A5000379AF894287F226082B3959892B38913CD
:100A6000949A7894BCD080E087B93798929A10FD18
:100A7000C198B3D081E087B93798F894287F216076
:100A800082B3949892B38913939A7894A8D0379AA2
:100A9000C19A10FDC298A1D080E087B93798F89428
:100AA000287F246082B3939892B38913959A78949F
:100AB00038C093D0379AF894287F216082B39598F4
:100AC00092B38913939A78948AD081E087B9379842
:100AD000C29A10FDC19881D080E087B93798F89408
:100AE000287F226082B3939892B38913949A789462
:100AF00076D0379AC19A10FD92986FD081E087B96D
:100B00003798F894287F246082B3949892B389131D
:100B1000959A789464D080E087B93798929A10FDBE
:100B2000C29880916100803010FF71F1E60120963B
:100B300061F18C30C8F483958093610062968EECED
:100B400090E060917700709176007C5F7093760002
:100B500021F4605FD9F060937700603170F07033FA
:100B600060F082E290E009C01F7BF0937700F09381
:100B70007600A3986A9688E393E0C817D90710F027
:100B80006C015CCF6E015ACF1DCF3DCF5CDE0D7F77
:100B900075DB74DB54DB92DC2096D1F7D2CEEFE22A
:100BA00082B3877C82BBA39A81E0809362005EC09F
:100BB00016FD09C0BC3030F0BBE0AB1708F4AB2F1A
:100BC000FFDD47C0A39AF093610070917500715FDB
:100BD00016FD70937500106449C01F7D01C010623E
:100BE00080916200815050F08093620016FF19C01E
:100BF000C0E0DFEFAF2E13DEA3E02AC0EF3211F426
:100C0000E1E3A39816FD3EC07BE1E9DD17DE79E55F
:100C1000E6DD00FFC4CF14FD51DC68B1612765FD3E
:100C2000F8CFA0917000B0917100B695A795B695D8
:100C3000A795A330BF0750F051F0A931BF0708F0C6
:100C4000A9E1AC3020F073E3CADD02C0A3E0B8DD57
:100C5000BA2F00FFADCF14FD31DC68B1612765FD0F
:100C600003C0AB17AF1FF5CFAA9599F7CCDC16FFE1
:100C7000E5DD809162008F131E7FBF1208958F9172
:100C80008F91A0CEC0E0D0E070E0A72E80916100EF
:100C9000823030F47091750080E090E860E051DDC2
:100CA000BEDDCCDDC0E0D8EB7BE0A72EB8DDAFEF3A
:040CB000CFCFF5CDE0
:101C0000E4E0FFE5FEBFEDBF00E0ECEBFEE0C0E886
:101C1000D0E0A0E6B0E042E045BD5CEE539571F047
:101C200040EC04BD48BFA03619F0E8B6E6FC46C05B
:101C3000B099F9CF04BD48BFE8B6E6FCE1C1B09B5E
:101C4000FBCF04BD48BFE8B6E6FCE8CFB099FBCFB8
:101C500034B404BD48BFE8B6E6FCD2C1B09BFBCFAC
:101C600024B4022C030C802C07940694402C069478
:101C70008008809420943094409460EE83E084BC8B
:101C800048BFE8B6E6FCBCC1B09BFBCF84BC48BFF4
:101C9000E8B6E6FCC3CFB099FBCF0894E8B6E6FC03
:101CA00023C0B09BFBCFE8B6E6FCB8CFB099FBCF22
:101CB0008894E8B6B09BE6FC17C0FBCF43BC87E135
:101CC000C09AB89A34BC48BFE8B6E6FEFDCFC098CB
:101CD00024BC48BFE8B6E6FEFDCF8A9589F7C0E68A
:101CE000D0E060E081E00BC0679548F6815068F570
:101CF0005CEE0994CA17DB07D1F0699188E066951C
:101D0000C09A34BC48BFE8B610F0E7FC08BBE6FE5A
:101D1000FACFC09808F0C09A24BC48BFE8B610F0CB
:101D2000E7FC08BBE6FEFACF8A9549F7E3CFC09AF5
:101D300034BC48BFC0E8D0E0A0E6B0E0E8B6E7FEBB
:101D4000FDCFB89808BB6ACF80E060E898CFECEB95
:101D5000FEE0C0E8D0E0F8CF009000000090000066
:101D60000090000000900000009000000090000033
:101D70000090000000900000000000006B3121F78F
:101D8000562E3796E1CF962E56263496DDCF762EF8
:101D900056263496D9CF662E56263496D5CF6E3039
:101DA000B1F656263596D0CF69935626CF3584E0C6
:101DB000D80768F681E0681A700A09F43C96C4CF27
:101DC0006511C5CFC0E8D0E0699199918991FD0175
:101DD0007BE170839182028372E073837EE074837F
:101DE0006583068317966130A1F48BE0838388E0D6
:101DF0008D93EF01ECEDFFE185918D93E43EE1F7EA
:101E0000FE01819161918627EA17FB07D9F78D932F
:101E10009ECF6D3151F5792F90E0039683839283A5
:101E200003970D938A95E9F789916991603380074B
:101E300094E0790779F460878991803059F4699149
:101E400060308EE131F0613083E919F0623087E073
:101E500009F482870D93D5CF8017900709F5D990A3
:101E6000C9905601AA0CBB1CCCCF6330E1F06230A4
:101E700041F2603131F2613121F2663069F3623151
:101E8000F1F1833F73E0970758F4643109F166314B
:101E900069F127966531C1F16331F9F10000000065
:101EA00080EC8683AECF90398FE071F0913982E07B
:101EB00059F092398AE041F0943982E329F0903860
:101EC00080E011F0913861F78D9383E0838399CF9F
:101ED00049D0EF01F5018FD076FDFDCF65916D936F
:101EE0000197E1F75F01FE010D938BCF3BD011E02D
:101EF0003ED06DB36D930197D9F70D9382CF47D044
:101F0000000080E092E0689416E06FEF0EF06991B7
:101F10002ED00197D1F7E89474CF8F7F61E07F01D5
:101F2000F5010990199068D032960297D1F70F0108
:101F3000F501500163E0E03C7FE1F70719F058D06C
:101F4000F7015FCF0BD065E009D061E107D0F8CF92
:101F500077B770FDFDCFE199FECF0895F9DF67BF38
:101F6000E8950895039692838383039708953AD062
:101F7000DFBACEBA0894C01ED01E762FE09A6DB399
:101F8000671312FF08957DBBE29A1CBB08957F0181
:101F9000E0E0FCE163E0E054F0402ED0E1F76F01B7
:101FA000F70108950000000000000000000000009C
:101FB0000000000000000000000000000000000021
:101FC000687474703A2F2F6769746875622E636F36
:101FD0006D2F73696D2D2F7467792F00415652490B
:101FE00053505F3277B770FDFDCFE199FECF089572
:101FF00003D065E001D061E1F5DF67BFE8950895A2
:00000001FF
